:020000040800F2
:10000000E807002001010008CD100008590D000884
:10001000C9100008C50100082D14000800000000E8
:100020000000000000000000000000008D13000828
:10003000C9010008000000005D130008C11300089A
:100040001B0100081B0100081B0100081B01000820
:100050001B0100081B0100081B0100081B01000810
:100060001B0100081B0100081B0100081B01000800
:100070001B0100081B0100081B0100081B010008F0
:100080001B0100081B0100081B0100081B010008E0
:100090001B0100081B0100081B0100081B010008D0
:1000A0001B0100081B0100081B0100081B010008C0
:1000B0001B0100081B0100081B0100081B010008B0
:1000C0001B0100081B0100081B0100081B010008A0
:1000D0001B0100081B0100081B0100081B01000890
:1000E0001B0100081B0100081B010008DFF80CD0F1
:1000F00000F02AF800480047E5140008E80700204F
:100100000648804706480047FEE7FEE7FEE7FEE7B1
:10011000FEE7FEE7FEE7FEE7FEE7FEE7291400083C
:10012000ED000008D2B201E000F8012B491EFBD21D
:1001300070470022F6E710B513460A4604461946F2
:10014000FFF7F0FF204610BD064C074D06E0E068C3
:1001500040F0010394E8070098471034AC42F6D30E
:10016000FFF7C8FF541B0008741B000870B58C18FB
:1001700010F8015B15F0070301D110F8013B2A11BB
:1001800006D110F8012B03E010F8016B01F8016BA8
:100190005B1EF9D12B0705D40023521E0DD401F8A4
:1001A000013BFAE710F8013BCB1A921C03E013F86D
:1001B000015B01F8015B521EF9D5A142D8D30020A2
:1001C00070BD0000FEE7000070470000EFF31080F4
:1001D00072B600BFFEE70000B0B5044600F014F9A7
:1001E000054640F28430C2F200000078611C18BF5E
:1001F000044400BF00F008F9401BA042FAD3B0BD90
:100200002DE9F04F82B00E68002E00F0F38041F22D
:100210000042C4F20102042340F2004E904208BFA3
:1002200003234FF6FF7CC4F2010E00930024012348
:10023000C1F2100C4FF0000A4FF0000940E0012518
:1002400004F00C030F279F402BEA070705FA03F37E
:100250003B4342F826304E68F203DEF8002054BFDC
:1002600022EA080242EA0802CEF80020DEF8042062
:10027000B30354BF22EA080242EA0802CEF804207F
:10028000F302DEF8082054BF22EA080242EA08021C
:10029000B30240F20C43CEF80820C4F201031A68FE
:1002A00054BF22EA080242EA08021A6001230E68DB
:1002B0000AF1010A36FA0AF204F1040400F09A8005
:1002C00003FA0AFB16EA0B08F1D04A68624511DC12
:1002D000122A51D8DFE802F0340A424650505050FA
:1002E000505050505050505050494D00D1F80C9043
:1002F00042E000BF4FF6FF75C1F22105AA420FDCB4
:100300000025C1F21105AA421AD00025C1F212053A
:10031000AA4215D00025C1F22105AA4210D02BE037
:100320000025C1F22205AA420AD00025C1F23105FA
:10033000AA4205D00025C1F23205AA421CD100BF55
:100340008A6842B1012A14BFC0F814B0C0F810B0D6
:100350004FF0080910E04FF004090DE0CA6802F1FF
:10036000080909E04FF0000906E0CA6802F1040933
:1003700002E0CA6802F10C0922460546B8F5807F02
:1003800024BF203A04352E680F279740BE4309FA50
:1003900002F232432A60CA79D2067FF588AF41F271
:1003A0001803C4F202031A684FEA9A0642F00102E7
:1003B0001A601A6840F6000302F001020192019AE5
:1003C000AEF57E7252F826B0C4F2010398420FD007
:1003D00040F60043C4F2010398423FF430AF41F2CB
:1003E0000003C4F20103009D984208BF022527E7DD
:1003F000002525E702B0BDE8F08F0000002A08BF05
:10040000090401617047000040F2E430C2F20000CC
:1004100000687047F0B581B0B0B3044690F83D0075
:1004200028B9002084F83C00204600F055F924202B
:1004300084F83D002068016821F001010160016835
:1004400041F400410160016821F40041016000F0C5
:10045000B7FA48F28041C0F21E0140F6001265680A
:1004600088424FF00001C0F23D0248F2A16C4FF00B
:10047000000338BF01219042C0F2010C38BF0123B4
:10048000654538BF0B4613B1012001B0F0BD4DF6F4
:100490008361C4F21B31A0FB011221684FEA924E26
:1004A0004B684FF4967623F03F0343EA92434B6048
:1004B00044F6D3530F6A0EFB06F6C1F26203A6FBA5
:1004C000033627F03F03B709654538BF970C7A1C00
:1004D0001A430A62CA6948F2A0674CF6FF73C0F279
:1004E0000107BD4222EA030C0AD801386A00B0FBBA
:1004F000F2F001306FF31F30042898BF04202BE086
:10050000A368A0F1010E9BB119206843BEFBF0F077
:100510000422013062F31F30000512D09BB1192074
:100520006843BEFBF0F00422013062F31F3011E09B
:1005300005EB4500BEFBF0F001306FF31F30000506
:10054000ECD1012008E005EB4500BEFBF0F00130E6
:100550006FF31F3040F4004040EA0C00C8610868A7
:10056000D4E9072320F0C0001043184308608868CE
:1005700048F2FF3204F10C0790438CCF184310432C
:10058000A6698860C86820F0FF0038433043C8601F
:10059000086840F00100086000202021206484F8F1
:1005A0003D10206384F83E0001B0F0BD2DE9F0431A
:1005B00083B0994616460F460446FFF725FF94F888
:1005C0003D1020290ED102210546C0F2100120461F
:1005D00001221923009500F069FC18B994F83C0039
:1005E000012803D1022003B0BDE8F0830121226875
:1005F00084F83C101368DDE90B080A99DB0703D186
:10060000136843F001031360136823F4006313605D
:10061000212284F83D20402284F83E2000222264DA
:1006200061626085608D394620850020CFF6FF70BD
:10063000E062204632464B46CDF80080019500F03E
:10064000A5FB30B3012003B0BDE8F083204641464E
:100650002A4600F0ABFC28BB606A2168034613F809
:10066000012B0A61228D6362571E2785638D3F042B
:10067000A3F1010363854B6918BF13F0040308D08D
:10068000437802300B616062901E2085608D0138D6
:100690006085208D0028D9D1204641462A4600F0A9
:1006A000D5FB40B1206C0428CCD12068016841F40E
:1006B00000710160C6E72068016841F400710160C3
:1006C000202084F83D00002084F83E0084F83C009F
:1006D00003B0BDE8F083000010B586B0016845F2B4
:1006E0000040C4F2000081424FF00001CDE9041146
:1006F000CDE9021101D006B010BD41F21804C4F2D8
:100700000204216800F5384041F0080121602168A9
:1007100001F0080101910199C02102911221039178
:100720000321059102A9FFF76BFD606840F40010FA
:100730006060606800F400100190019806B010BD80
:1007400040F2843040F2E431C2F20000C2F2000113
:1007500000780A68104408607047000080B542F2D3
:100760000000C4F20200016841F0100101600320A2
:1007700000F062F80F2000F005F800F02BF80020E0
:1007800080BD0000B0B540F28432C2F2000240F2F7
:1007900080311278C2F200014FF47A730968B3FB1A
:1007A000F2F20446B1FBF2F1084600F0D1FA0F2C48
:1007B0004FF001050CD858B94FF0FF302146002208
:1007C000002500F029F840F28830C2F200000460F1
:1007D0002846B0BD82B041F21800C4F202000168A0
:1007E000042241F001010160016801F00101019161
:1007F0000199416841F080514160406800F08050AB
:10080000009000980420C4F20100016862F31A61AC
:10081000016002B07047000070B514460D460646F0
:1008200000F036FE2946224600F052FC01463046D2
:1008300000F036FE70BD000080B500F043FE80BDC4
:100840002DE9F04381B0002800F0898042F20008D1
:10085000C4F202080446D8F800000D4600F0070074
:1008600088420CD2D8F8000020F007002843C8F8CE
:100870000000D8F8000000F00700A8426FD12068FF
:1008800041F204098107C4F2020917D5410705D5D1
:10089000D9F8001041F4E061C9F80010010705D54E
:1008A000D9F8001041F46051C9F80010D9F80010CF
:1008B000A26821F0F0011143C9F80010C00745D12A
:1008C000D8F8000000F00700A8420CD9D8F80000C2
:1008D00020F007002843C8F80000D8F8000000F016
:1008E0000700A8423BD12068410707D5D9F800107E
:1008F000E26821F4E0611143C9F80010000708D54F
:10090000D9F80000216920F4605040EAC100C9F81C
:10091000000000F067F8D9F8001041F24A52C1F324
:100920000311C0F60002515C40F2803220FA01F15E
:1009300040F28830C2F200000068C2F2000211608A
:10094000FFF720FF002001B0BDE8F08360680228B7
:1009500009D0012829D159F8041C890307D40120A2
:1009600001B0BDE8F08359F8041C8901F7D5D9F826
:10097000001021F003010843C9F80000FFF744FD0F
:10098000064641F2883700BFD9F80000616800F0E0
:100990000C00B0EB810F93D0FFF736FD801BB842FF
:1009A000F2D9032001B0BDE8F08359F8041C89078F
:1009B000D5D5DCE740F28030C2F200000068704715
:1009C00080B5FFF7F7FF41F20401C4F202010968A4
:1009D00041F25A52C1F30221C0F60002515CC840F4
:1009E00080BD000041F2040CC4F2020CDCF80030BF
:1009F00003F00C00082841F20020C0F27A0018BF72
:100A00007047C3F383420AA18A5CD90305D440F638
:100A10000010C0F23D0050437047DCF8001008A3FE
:100A2000C1F34041595C5043B0FBF1F0704700BF47
:100A300002030405060708090A0B0C0D0E0F10101F
:100A4000010200002DE9F04182B0002800F0C480CE
:100A50000446007841F20006C007C4F2020643D003
:100A6000706800F00C00042817D0706800F00C00CB
:100A7000082802D17068C0030FD465682DB1B5F5A0
:100A8000A02F10D0B5F5803F11D0306820F4803011
:100A90003060306820F480200CE03068800323D57B
:100AA000606808BB98E0306840F4802030603068AF
:100AB00040F480303060FFF7A7FC002D054610D0D1
:100AC0003068800310D4FFF79FFC401B6428F7D9DF
:100AD00004E100BFFFF798FC401B64284FF00300BF
:100AE00077D830688003F5D42078800718D57068EF
:100AF00010F00C0F07D0706800F00C00082826D109
:100B00007068C00323D43068800702D520690128AB
:100B100062D13068616920F0F80040EAC1003060BD
:100B2000207800073DD5A06938B30020C4F24220E8
:100B30000121C0F88014FFF767FC0546706A800742
:100B40002DD4FFF761FC401B0228F7D9C6E02069CD
:100B5000002840F20000C4F2422000F096800121FB
:100B60000160FFF751FC054630688007D1D4FFF7DC
:100B70004BFC401B0228F7D9B0E00020C4F2422011
:100B80000021C0F88014FFF73FFC0546706A80071B
:100B900007D5FFF739FC401B0228F7D99EE000F08B
:100BA000DFFB207840071BD4E5698DB1706800F049
:100BB0000C00082847D1012D0ED07068216A00F47E
:100BC00080328A4208D1616A00F47010884203D1F1
:100BD000002002B0BDE8F081012002B0BDE8F08144
:100BE000F06910F0805808D1F06940F08050F06151
:100BF000F06900F080500190019847F20007C4F2BC
:100C000000073868C00510D4386840F48070386038
:100C1000FFF7FAFB054600BF3868C00505D4FFF7AB
:100C2000F3FB401B6428F7D958E0E5681DB1052D9A
:100C30003CD0012D3ED0306A20F001003062306A95
:100C400020F0040039E00027C4F242270020386673
:100C5000FFF7DAFB022D05460CD100BF306880019A
:100C600054D5FFF7D1FB401B02284FF00300F5D904
:100C7000AFE700BF30688001AAD5FFF7C5FB401B76
:100C800002284FF00300F5D9A3E700210160FFF728
:100C9000BBFB0546306880077FF542AFFFF7B4FB2A
:100CA000401B02284FF00300F4D992E7306A40F06D
:100CB00004003062306A40F001003062FFF7A4FBAC
:100CC000002D054641F2883714D000BF306A8007F6
:100CD00013D4FFF799FB401BB842F7D9032002B0A9
:100CE000BDE8F081FFF790FB401BB8424FF00300D6
:100CF0003FF66FAF306A8007F4D4B8F1000F7FF48D
:100D000053AFF06920F08050F0614DE7206AB0F5F4
:100D1000803F05D17168A26821F4003111437160F0
:100D20007168626A21F474111043084370600120F5
:100D30003866FFF769FB0446306880013FF548AF2D
:100D4000FFF762FB001B02284FF00300F4D940E7D5
:100D500080B500F01DFB80BDFEE700000268516910
:100D600049054FF000010FD56FF4806353612022D5
:100D7000016380F83D2080F83E10026C42F00402CE
:100D8000026480F83C100121084670472DE9F043C9
:100D900083B0044600680D4601680A9F0B9E41F42B
:100DA000807199469046016020464FF00111002263
:100DB0003B46009600F07AF850B120680068C00504
:100DC00044BF4FF400702064032003B0BDE8F083FB
:100DD000206805F0FE0101610221C0F201012046F8
:100DE0003A46334600F09CF818B1012003B0BDE844
:100DF000F0830020029020683246416902918069A8
:100E0000394602900298204600F0D0F840B1206C9C
:100E10000428EAD12068016841F400710160E4E728
:100E2000B9F1010F0AD020684FEA1821016120466C
:100E30003946324600F0BAF80028E8D120685FFA57
:100E400088F10161002003B0BDE8F083F0B581B006
:100E5000044600684069400724D415460E464F1CDE
:100E600004E000BF2068406940071BD42046FFF71C
:100E700075FFA0B9002FF5D0FFF7C6FA16B1401BD9
:100E8000B042EFD900202021206384F83D1084F87F
:100E90003E00216C41F02001216484F83C000120D7
:100EA00001B0F0BD002001B0F0BD00002DE9F04719
:100EB000DDF820801D469146824601F47F078EB200
:100EC0005C1C00BFDAF80000B7F5803F14BF183093
:100ED000143000683040801BB0FA80F0400948456B
:100EE0001BD1002CEED0FFF78FFA1DB1A0EB08004C
:100EF000A842E7D900202021CAF830008AF83D1026
:100F00008AF83E00DAF8401041F02001CAF840109B
:100F10008AF83C000120BDE8F0870020BDE8F0879A
:100F20002DE9F04104460068984643698FB203EA10
:100F30000701B94202D10020BDE8F08141694905AD
:100F400012D41646551C00BF35B1FFF75DFA16B333
:100F5000A0EB0800B0421ED8206841693940B94270
:100F6000E9D041694905EFD5016841F4007101609C
:100F70006FF48061416100202021206384F83D10DE
:100F800084F83E00216C41F00401216484F83C00A7
:100F90000120BDE8F08100202021206384F83D106D
:100FA00084F83E00216C41F02001EEE7F0B581B0FD
:100FB000044600684069000624D415460E464F1CBE
:100FC00004E000BF2068406900061BD42046FFF7FC
:100FD000C5FEA0B9002FF5D0FFF716FA16B1401BD9
:100FE000B042EFD900202021206384F83D1084F81E
:100FF0003E00216C41F02001216484F83C00012076
:1010000001B0F0BD002001B0F0BD000070B586B0A9
:10101000002541F21800CDE90455CDE90255C4F28E
:101020000200016841F2000441F010010160016812
:10103000C4F2010401F0100101910199016800223C
:1010400041F02001016001684FF4005601F02001D9
:1010500001910199016841F00801016000684FF4B5
:10106000005100F00800019001982046FFF7C6F9F2
:101070000120CDE903050220059002A92046029631
:10108000FFF7BEF806B070BD80B540F2903045F273
:101090000041C2F20000C4F2000148F2A062002345
:1010A0004FF4804CC0F2010280E80E00C0E9033C1E
:1010B000C0E90533C0E90733FFF7ACF9002808BFE2
:1010C00080BDFFF783F80000FEE70000FEE70000A8
:1010D00000F0070080F00703042B28BF04234FF023
:1010E000FF3C03380CFA03F338BF002099438140DA
:1010F0000CFA00F022EA000008437047B0B5002463
:1011000004F1B0000021002500F01EF900200021AC
:1011100000F01AF91020002100F016F9002001213A
:1011200000F012F9681C45B2B5F1FF3FF6DC01345E
:10113000082C08BFB0BDE3E780B5AE20002100F069
:1011400003F90020002100F0FFF81020002100F03A
:10115000FBF84020002100F0F7F8B020002100F05B
:10116000F3F88120002100F0EFF8FF20002100F0CB
:10117000EBF8A120002100F0E7F8A620002100F004
:10118000E3F8A820002100F0DFF83F20002100F064
:10119000DBF8C820002100F0D7F8D320002100F0B0
:1011A000D3F80020002100F0CFF8D520002100F076
:1011B000CBF88020002100F0C7F8D820002100F0F3
:1011C000C3F80520002100F0BFF8D920002100F06D
:1011D000BBF8F120002100F0B7F8DA20002100F080
:1011E000B3F81220002100F0AFF8DB20002100F05E
:1011F000ABF83020002100F0A7F88D20002100F08E
:10120000A3F81420002100F09FF8AF20002100F087
:101210009BF880BD10B5044601F1B000002100F03C
:1012200093F820091030002100F08EF804F00F0030
:10123000002100F089F810BDF0B581B016460D46CA
:101240000446FFF7E7FF40F20000C2F2000000EBA7
:1012500086164FF0FF3700BFF0194078012100F0EB
:1012600073F801370F2FF7D1681CC1B22046FFF782
:10127000D1FF1F2430194078012100F065F80134B6
:101280002F2CF7D101B0F0BDF0B581B00D4604466A
:1012900040B2002844BF02350024E9B220461F4670
:1012A0001646FFF7B7FF102F22D1A6F1200041F21A
:1012B0006251C0B2C0F6000101EB00164FF0FF37DB
:1012C000F0194078012100F03FF80137072FF7D1DE
:1012D000681CC1B22046FFF79DFFF41D082500BF22
:1012E00014F8010F012100F02FF8013DF8D109E0B9
:1012F000002400BF0020012100F026F8052C04F195
:101300000104F7D301B0F0BD2DE9F0411546127884
:10131000002A08BFBDE8F08198460E460746002423
:10132000F8B2F1B2D2B24346FFF7AEFF0837F8B2D7
:1013300001347828E0B288BF02362A5C88BF0027D3
:10134000002AEDD1BDE8F08180B5C0B211B100F046
:1013500087F880BD00F06CF880BD00007047000089
:1013600081B040F28030C2F20000006844F6D351F0
:10137000C1F26201A0FB0101480A009000BF009881
:10138000411E00280091F9D101B07047704700005C
:10139000B0B501380024B4EB106F1CBF0120B0BD04
:1013A0004EF21005CEF2000568604FF0FF300F21BD
:1013B00000F076F80720AC6028602046B0BD000041
:1013C00080B5FFF7BDF980BD70B590B006AC204682
:1013D0002821FEF7AEFE012006900A904FF4E0109F
:1013E00000254FF4803102260F9020460595CDE967
:1013F0000355CDE90155CDE90715CDE90D61FFF79D
:1014000021FB78B90F20CDE901064FF48060CDE9CA
:10141000040501A802210395FFF712FA002804BF72
:1014200010B070BDFEF7D2FE70470000FEE700006E
:1014300080B584B08DF80F0001200DF10F01CDE9CA
:10144000001040F290304FF0640CC2F2000078219E
:1014500000220123CDF808C0FFF7A8F804B080BD32
:1014600080B584B08DF80F0001200DF10F01CDE99A
:10147000001040F290304FF0640CC2F2000078216E
:1014800040220123CDF808C0FFF790F804B080BDDA
:101490004EF60C50CEF200000068C0F302207047F8
:1014A0004EF6145300F00F02CEF2000309011A4465
:1014B00000F16043B0F1FF3FC8BF03F56442117013
:1014C000704700004EF60C51CEF200010A684FF64C
:1014D000FF031A4060F30A2242F0806040F0FD7082
:1014E00008607047FFF73AF9FFF76EFFFFF78EFDD0
:1014F000FFF7CAFDFFF720FEFFF700FE24200021C2
:101500000222FFF799FE4FF47A70FEF765FEFFF7AF
:10151000F5FD04A2062003211023FFF7F5FE00BF0E
:10152000FEE700BF68656C6C6F00000002E008C851
:10153000121F08C1002AFAD170477047002001E04D
:1015400001C1121F002AFBD17047000000000000FB
:101550000000010203040607080900000000010260
:101560000304000000000000000000000000000074
:101570000000000000F80000000000000033300010
:10158000000000100C06100C060000000000000017
:10159000000040C07840C0784000043F04043F048D
:1015A0000400007088FC08300000001820FF211E95
:1015B0000000F008F000E018000000211C031E21CC
:1015C0001E0000F00888700000001E212324192747
:1015D000211010160E0000000000000000000000A6
:1015E0000000000000E018040200000000071820BE
:1015F000400000020418E00000000040201807002E
:101600000000404080F0804040000202010F0102D3
:101610000200000000F0000000000101011F0101B4
:101620000100000000000000000080B07000000019
:1016300000000000000000000000000101010101A5
:101640000101000000000000000000303000000038
:10165000000000000000806018040060180601000F
:10166000000000E010080810E000000F102020101B
:101670000F00001010F8000000000020203F202084
:10168000000000700808088870000030282422211B
:1016900030000030088888483000001820202011D1
:1016A0000E000000C02010F8000000070424243FB2
:1016B000240000F80888880808000019212020115B
:1016C0000E0000E0108888180000000F1120201183
:1016D0000E0000380808C83808000000003F00006D
:1016E00000000070880808887000001C2221212258
:1016F0001C0000E010080810E00000003122221158
:101700000F00000000C0C0000000000000303000EA
:101710000000000000800000000000008060000069
:1017200000000000804020100800000102040810A2
:1017300020004040404040404000040404040404B1
:10174000040000081020408000000020100804025F
:101750000100007048080808F00000000030360161
:101760000000C030C828E810E00007182724231420
:101770000B000000C038E0000000203C23020227DC
:10178000382008F8888888700000203F2020201129
:101790000E00C03008080808380007182020201064
:1017A000080008F808080810E000203F202020105A
:1017B0000F0008F88888E8081000203F2020232028
:1017C000180008F88888E8081000203F200003006F
:1017D0000000C03008080838000007182020221E2A
:1017E000020008F808000008F808203F2101012144
:1017F0003F20000808F8080800000020203F2020B3
:10180000000000000808F8080800C08080807F0001
:10181000000008F888C028180800203F200126385A
:10182000200008F8080000000000203F20202020B1
:10183000300008F8F800F8F80800203F003F003FAB
:10184000200008F830C00008F808203F20000718E2
:101850003F00E01008080810E0000F1020202010C2
:101860000F0008F808080808F000203F21010101D6
:101870000000E01008080810E0000F182424385079
:101880004F0008F8888888887000203F2000030CEB
:1018900030200070880808083800003820212122F4
:1018A0001C00180808F8080818000000203F200055
:1018B000000008F808000008F808001F2020202079
:1018C0001F000878880000C83808000007380E019B
:1018D0000000F80800F80008F800033C0700073C87
:1018E0000300081868808068180820302C03032C37
:1018F00030200838C800C83808000000203F200009
:10190000000010080808C8380800203826212020C8
:101910001800000000FE020202000000007F4040AC
:101920004000000C30C0000000000000000106383C
:10193000C00000020202FE000000004040407F00A4
:101940000000000004020202040000000000000089
:101950000000000000000000000080808080808087
:10196000808000020204000000000000000000006F
:1019700000000000808080800000001924222222C4
:101980003F2008F8008080000000003F1120201157
:101990000E000000008080800000000E112020203A
:1019A0001100000000808088F800000E1120201037
:1019B0003F200000808080800000001F2222222221
:1019C0001300008080F0888888180020203F2020A5
:1019D00000000000808080808000006B94949493CD
:1019E000600008F8008080800000203F2100002077
:1019F0003F2000809898000000000020203F202019
:101A00000000000000809898000000C08080807F67
:101A1000000008F8000080808000203F24022D3064
:101A20002000000808F8000000000020203F2020CF
:101A300000008080808080808000203F20003F2048
:101A4000003F8080008080800000203F2100002037
:101A50003F200000808080800000001F2020202088
:101A60001F00808000808000000080FFA1202011E6
:101A70000E000000008080808000000E112020A059
:101A8000FF80808080008080800020203F21200017
:101A90000100000080808080800000332424242402
:101AA0001900008080E0808000000000001F2020DE
:101AB00000008080000000808000001F2020201097
:101AC0003F20808080000080808000010E3008066A
:101AD000010080800080008080800F300C030C307B
:101AE0000F0000808000808080000020312E0E31A9
:101AF0002000808080000080808080818E701806A9
:101B0000010000808080808080000021302C222114
:101B1000300000000000807C020200000000003F56
:101B2000404000000000FF00000000000000FF0037
:101B300000000002027C800000000040403F0000E6
:101B40000000000601010202040400000000000081
:101B500000000000781B0008000000209003000037
:101B60006C010008F01C00089003002058040000DD
:101B70003C15000800000000211BF010012AFF05A1
:101B80000215F01B0F04012AFF0502130F1809406C
:101B900040405F55555575041A5F0C091121080C1A
:101BA00011200F094989790909090F201F112FFEFA
:101BB00002424ACA4A0304134202FE000E14FF40C6
:101BC000504C4340404F50505C40FF1BF888012A66
:101BD000FF050215F81B1F08012A7F200B109F80AC
:101BE000E23B808201000916E2A2928A868280800E
:101BF000041840807F172424A4FEA3221B22CCAA11
:101C0000011415080601FF2B0104010511FF020252
:101C1000025808101010FF109008C3021108080F96
:101C2000100444827F01808040432C10284681A00C
:101C300018094040484848C8784F060515484840AC
:101C4000400009150312122222528A063C106080BD
:101C5000BA19040B11C030FB1E404043407F061CE4
:101C60007F424106094FC02941080B1110D030FFB7
:101C700030D0121C10101F3D080402019E0D1101EE
:101C8000020408211116FE222222FE0712FE828281
:101C900092A29E100880601F0242827F0F11FF40B7
:101CA0002F102C438011000B1490884C57A42454FF
:101CB000548C84180801018042221A07441D423EB8
:101CC00001018AF9E1000D14E4242CB4252624B482
:101CD0002C24E404180AFF02011E1212121E41866F
:101CE00001131324F4295669DA00000000000000F3
:04000005080000ED02
:00000001FF
