:020000040800F2
:10000000E8070020010100086D100008250E000817
:1000100069100008C501000815150008000000005F
:1000200000000000000000000000000009150008AA
:10003000C901000800000000051500080D150008A2
:100040001B0100081B0100081B0100081B01000820
:100050001B0100081B0100081B0100081B01000810
:100060001B0100081B0100081B0100081B01000800
:100070001B0100081B0100081B0100081B010008F0
:100080001B0100081B0100081B0100081B010008E0
:100090001B0100081B0100081B0100081B010008D0
:1000A0001B0100081B0100081B0100081B010008C0
:1000B0001B0100081B0100081B0100081B010008B0
:1000C0001B0100081B0100081B0100081B010008A0
:1000D0001B0100081B0100081B0100081B01000890
:1000E0001B0100081B0100081B010008DFF80CD0F1
:1000F00000F02AF80048004719150008E80700201A
:100100000648804706480047FEE7FEE7FEE7FEE7B1
:10011000FEE7FEE7FEE7FEE7FEE7FEE71115000853
:10012000ED000008D2B201E000F8012B491EFBD21D
:1001300070470022F6E710B513460A4604461946F2
:10014000FFF7F0FF204610BD064C074D06E0E068C3
:1001500040F0010394E8070098471034AC42F6D30E
:10016000FFF7C8FF98160008B816000870B58C187D
:1001700010F8015B15F0070301D110F8013B2A11BB
:1001800006D110F8012B03E010F8016B01F8016BA8
:100190005B1EF9D12B0705D40023521E0DD401F8A4
:1001A000013BFAE710F8013BCB1A921C03E013F86D
:1001B000015B01F8015B521EF9D5A142D8D30020A2
:1001C00070BD0000FEE7000070470000B0B50446B7
:1001D00000F018F9054640F28430C2F200000078C1
:1001E000611C18BF044400BF00F00CF9401BA04282
:1001F000FAD3B0BD2DE9F04F82B00E68002E00F0AA
:10020000F88040F20C4C40F2004E41F20042C4F241
:10021000010CC4F2010EC4F20102042700240123E0
:100220004FF0000A4FF00009904208BF03270097E3
:1002300041E0012704F00C030F229A402BEA02024E
:1002400007FA03F34FEA9A051A4346F825204E6849
:10025000F203DEF8002054BF22EA080242EA080254
:10026000CEF80020DEF80420B30354BF22EA0802CF
:1002700042EA0802CEF80420F302DEF8082054BF58
:1002800022EA080242EA0802B302CEF80820DCF8AB
:1002900000204FF0010354BF22EA080242EA08029C
:1002A000CCF800200E680AF1010A36FA0AF204F1CD
:1002B000040400F09E8003FA0AFB16EA0B08F1D052
:1002C0004E684FF6FF72C1F21002964210DC122EF9
:1002D00050D8DFE806F0330A41454F4F4F4F4F4F9C
:1002E0004F4F4F4F4F4F4F484C00D1F80C9041E0CB
:1002F0004FF6FF72C1F2210296420FDC0022C1F2DA
:10030000110296421AD00022C1F21202964215D072
:100310000022C1F22102964210D02BE00022C1F24D
:10032000220296420AD00022C1F23102964205D042
:100330000022C1F2320296421CD100BF8A6842B14B
:10034000012A14BFC0F814B0C0F810B04FF008096B
:1003500010E04FF004090DE0CA6802F1080909E055
:100360004FF0000906E0CA6802F1040902E0CA6819
:1003700002F10C0922460646B8F5807F24BF203AD8
:10038000043637680F25954027EA050509FA02F279
:100390002A433260CA79D2067FF584AF41F218034E
:1003A000C4F202031A68AEF57E7642F001021A60CA
:1003B0001A6802F001020192019A2AF0030256F82B
:1003C00002B040F60002C4F2010290420FD040F6A3
:1003D0000042C4F2010290423FF42BAF41F200020E
:1003E000C4F20102009F904208BF022722E70027C3
:1003F00020E702B0BDE8F08F002A08BF09040161C0
:100400007047000040F2E430C2F20000006870471C
:10041000F0B581B0B0B3044690F83D0028B9002093
:1004200084F83C00204600F089F9242084F83D003F
:100430002068016821F001010160016841F4004178
:100440000160016821F40041016000F029FB48F2DD
:100450008041C0F21E0140F60012656888424FF0EC
:100460000001C0F23D0248F2A16C4FF0000338BF1A
:1004700001219042C0F2010C38BF0123654538BF0D
:100480000B4613B1012001B0F0BD4DF68361C4F2FB
:100490001B31A0FB011221684FEA924E4B684FF4CA
:1004A000967623F03F0343EA92434B6044F6D353DE
:1004B0000F6A0EFB06F6C1F26203A6FB033627F0B5
:1004C0003F03B709654538BF970C7A1C1A430A6287
:1004D000CA6948F2A0674CF6FF73C0F20107BD423B
:1004E00022EA030C0AD801386A00B0FBF2F00130AE
:1004F0006FF31F30042898BF04202BE0A368A0F1FD
:10050000010E9BB119206843BEFBF0F004220130BC
:1005100062F31F30000512D09BB119206843BEFB67
:10052000F0F00422013062F31F3011E005EB4500CA
:10053000BEFBF0F001306FF31F300005ECD101205D
:1005400008E005EB4500BEFBF0F001306FF31F3013
:1005500040F4004040EA0C00C8610868D4E9072371
:1005600020F0C000104318430860886848F2FF324A
:1005700004F10C0790438CCF18431043A6698860A0
:10058000C86820F0FF0038433043C860086840F076
:100590000100086000202021206484F83D102063C1
:1005A00084F83E0001B0F0BD2DE9F04F83B09946CC
:1005B00016460F460446FFF725FF94F83D10202904
:1005C00022D1DDF83880DDF830B00546206880693A
:1005D00010F0020A14D0FFF715FF401B1A28F5D3BC
:1005E00000202021206384F83D1084F83E00216C17
:1005F000BAF1000F41F02001216484F83C0003D1DE
:1006000094F83C00012803D1022003B0BDE8F08F2C
:100610000121206884F83C100168C90703D10168F2
:1006200041F0010101600168324621F4006101607E
:10063000212084F83D00402084F83E000020206402
:100640000D98C4F824B06085608D3946208500205F
:10065000CFF6FF70E06220464B46CDF80080019552
:1006600000F0E2FB18B1012003B0BDE8F08F208D4F
:10067000A8B308F1010600BF206850F8141F09064E
:100680000FD40168490540D4002EF5D0FFF7BAFE1B
:10069000B8F1000F4FF020013BD0401B4045EBD993
:1006A00037E0606A2168034613F8012B0A61228D46
:1006B0006362531E2385678D013F67854F697F07FE
:1006C0000AD51B0408D0437802300B616062901E8B
:1006D0002085608D01386085208D0028CCD1204692
:1006E00041462A4600F08AFCF8B92068016841F4C6
:1006F00000710160202084F83D00002084F83E0055
:1007000084F83C0003B0BDE8F08F6FF480610160B5
:10071000042100202022206384F83D2084F83E003C
:10072000226C1143216484F83C00206C04289AD187
:100730002068016841F40071016094E710B586B04B
:10074000016845F20040C4F2000081424FF0000110
:10075000CDE90411CDE9021101D006B010BD41F27E
:100760001804C4F20204216800F5384041F0080181
:100770002160216801F0080101910199C0210291D5
:10078000122103910321059102A9FFF733FD60684F
:1007900040F400106060606800F40010019001985F
:1007A00006B010BD40F2843040F2E431C2F20000E5
:1007B000C2F2000100780A68104408607047000027
:1007C00080B542F20000C4F20200016841F010015D
:1007D0000160032000F076F80F2000F005F800F02B
:1007E0002BF8002080BD0000B0B540F28432C2F288
:1007F000000240F280311278C2F200014FF47A73A5
:100800000968B3FBF2F20446B1FBF2F1084600F0CE
:10081000F3FA0F2C4FF001050CD858B94FF0FF3008
:1008200021460022002500F021F840F28830C2F273
:10083000000004602846B0BD82B041F21800C4F246
:100840000200016841F001010160016801F001014D
:1008500001910199416841F080514160406800F088
:1008600080500090009802B07047000010B54EF61E
:100870000C5CCEF2000CDCF80030C3F3022E8EF0DC
:100880000704042C28BF0424BEF103034FF0FF3EED
:100890000EFA04F438BF0023A14399400EFA03F383
:1008A0009A43114300F1604200F00F03090102F581
:1008B0006442043B6344002848BF03F10C021170FA
:1008C00010BD00004EF60C51CEF200010A684FF642
:1008D000FF031A4060F30A2242F0806040F0FD708E
:1008E000086070472DE9F04381B0002800F0858052
:1008F00042F20008C4F202080446D8F800000D468F
:1009000000F0070088420CD2D8F8000020F0070061
:100910002843C8F80000D8F8000000F00700A842FB
:100920006BD1206841F204098107C4F2020917D58E
:10093000410705D5D9F8001041F4E061C9F800106D
:10094000010705D5D9F8001041F46051C9F800102D
:10095000D9F80010A26821F0F0011143C9F8001085
:10096000C00741D1D8F8000000F00700A8420CD918
:10097000D8F8000020F007002843C8F80000D8F895
:10098000000000F00700A84237D12068410707D5D2
:10099000D9F80010E26821F4E0611143C9F80010B1
:1009A000000708D5D9F80000216920F4605040EA1A
:1009B000C100C9F80000D9F8002002F00C00082896
:1009C00041F20020C0F27A004ED141F28663C2F3B8
:1009D0008341C0F60003595CD20339D440F60010BD
:1009E000C0F23D0048433FE06068022809D001287A
:1009F00029D159F8041C890307D4012001B0BDE8AE
:100A0000F08359F8041C8901F7D5D9F8001021F0BA
:100A100003010843C9F80000FFF7F4FC064641F261
:100A2000883700BFD9F80000616800F00C00B0EB17
:100A3000810F97D0FFF7E6FC801BB842F2D9032064
:100A400001B0BDE8F08359F8041C8907D5D5DCE76F
:100A5000D9F8002041F26C63C2F34042C0F60003B3
:100A60009A5C4843B0FBF2F0D9F8001041F26E6294
:100A7000C1F30311C0F60002515C40F2803220FA4B
:100A800001F140F28830C2F200000068C2F20002B8
:100A90001160FFF7A9FE002001B0BDE8F08300005F
:100AA00040F2803041F20401C2F20000C4F20201BF
:100AB0000068096841F27E62C1F30221C0F60002BB
:100AC000515CC840704700002DE9F04182B0002819
:100AD00000F0D7800446007841F20006C007C4F257
:100AE000020644D0706800F00C00042817D070682B
:100AF00000F00C00082802D17068C0030FD46568AC
:100B00002DB1B5F5A02F10D0B5F5803F11D03068CC
:100B100020F480303060306820F480200CE03068B1
:100B2000800324D5606810BBABE0306840F48020BF
:100B30003060306840F480303060FFF763FC002D97
:100B4000054611D03068800311D4FFF75BFC401BD1
:100B50006428F7D916E100BFFFF754FC401B642856
:100B60004FF0030000F28A8030688003F4D42078CC
:100B7000800718D5706810F00C0F07D0706800F06F
:100B80000C00082827D17068C00324D4306880077F
:100B900002D52069012874D13068616920F0F8001D
:100BA00040EAC1003060207800074FD5A06940B30B
:100BB0000020C4F242200121C0F88014FFF722FC7B
:100BC000054600BF706A80072DD4FFF71BFC401B51
:100BD0000228F7D9D6E02069002840F20000C4F2CC
:100BE000422000F0A68001210160FFF70BFC0546C2
:100BF00030688007D0D4FFF705FC401B0228F7D9E6
:100C0000C0E00020C4F242200021C0F88014FFF7A9
:100C1000F9FB0546706A800718D5FFF7F3FB401B08
:100C20000228F7D9AEE040F28030C2F2000000683E
:100C300044F6D351C1F26201A0FB0101480A0190C0
:100C400000BF0198411E00280191F9D1207840078A
:100C50001BD4E5698DB1706800F00C00082846D1FE
:100C6000012D0ED07068216A00F480328A4208D1CA
:100C7000616A00F47010884203D1002002B0BDE820
:100C8000F081012002B0BDE8F081F06910F08058D9
:100C900008D1F06940F08050F061F06900F08050B8
:100CA0000090009847F20007C4F200073868C005BA
:100CB0000FD4386840F480703860FFF7A3FB054616
:100CC0003868C00505D4FFF79DFB401B6428F7D9A1
:100CD00058E0E5681DB1052D3CD0012D3ED0306AAD
:100CE00020F001003062306A20F0040039E0002773
:100CF000C4F2422700203866FFF784FB022D054628
:100D00000CD100BF3068800154D5FFF77BFB401B3E
:100D100002284FF00300F5D9B0E700BF306880012A
:100D2000ABD5FFF76FFB401B02284FF00300F5D94E
:100D3000A4E700210160FFF765FB054630688007E6
:100D40007FF531AFFFF75EFB401B02284FF0030039
:100D5000F4D993E7306A40F004003062306A40F022
:100D600001003062FFF74EFB002D054641F2883747
:100D700014D000BF306A800713D4FFF743FB401B39
:100D8000B842F7D9032002B0BDE8F081FFF73AFB83
:100D9000401BB8424FF003003FF670AF306A800747
:100DA000F4D4B8F1000F7FF454AFF06920F0805014
:100DB000F0614EE7206AB0F5803F05D17168A26806
:100DC00021F40031114371607168626A21F4741179
:100DD00011430843706001203866FFF713FB044697
:100DE000306880013FF549AFFFF70CFB001B02287C
:100DF0004FF00300F4D941E7411E0020B0EB116F22
:100E00001CBF012070474EF21002CEF2000251606A
:100E10004EF62351CEF20001F0230B7007219060B3
:100E200011607047FEE700002DE9F04F81B00446E5
:100E3000006890460268DDF82CB042F480720260CF
:100E400040690A9E994610F001008A462ED180F032
:100E50000107751C07E000BF2068406910F0010021
:100E600080F0010722D1002DF6D0FFF7CBFA1EB19A
:100E7000A0EB0B00B042EFD900202021206384F8C2
:100E80003D1084F83E00216C41F020012164F907F7
:100E900084F83C000AD020680068C00544BF4FF4C5
:100EA00000702064032001B0BDE8F08F20680AF0D4
:100EB000FE010161416989072BD44169490513D4B9
:100EC000771C00BF4FB1FFF79DFA002E00F08A801B
:100ED000A0EB0B00B04200F28580206841698907D1
:100EE00017D441694905EDD5016841F400710160ED
:100EF0006FF48061416100202021206384F83D105F
:100F000084F83E00216C41F00401216484F83C0027
:100F10005CE000200090206850F8141F00914168A8
:100F2000009100990168090616D4771C05E000BFFE
:100F3000206850F8141F09060ED4016849052DD405
:100F4000002FF5D0FFF75EFA4FF0200156B3A0EB6B
:100F50000B00B042ECD925E02068B9F1010F3AD07E
:100F60004FEA1821016150F8141F090632D4771C8A
:100F700005E000BF206850F8141F09062AD4016854
:100F800049050BD4002FF5D0FFF73CFA4FF02001B4
:100F900046B1A0EB0B00B042ECD903E06FF48061E6
:100FA0000160042100202022206384F83D2084F881
:100FB0003E00226C1143216484F83C00206C04281C
:100FC00004D12068016841F400710160012001B082
:100FD000BDE8F08F20685FFA88F10161002001B060
:100FE000BDE8F08F00202021206384F83D1084F8B4
:100FF0003E00216C41F0200187E70000F0B581B090
:1010000004460068154650F8143F5A0715D40E469A
:101010004F1C04E0206850F8141F49070DD40168E4
:1010200049050DD4002FF5D0FFF7ECF94FF0200162
:1010300056B1401BB042EDD906E0002001B0F0BD32
:101040006FF480610160042100202022206384F875
:101050003D2084F83E00226C1143216484F83C005A
:10106000012001B0F0BD0000FEE70000FEE7000037
:101070002DE9F04F85B040F2903400256426012719
:10108000C2F200040DF1120B0DF113084FF000092C
:1010900009F1B0008DF8100004A8CDE90007204642
:1010A0007821002201230296FFF77EFA0DF111004C
:1010B000CDE9000720467821002201238DF8115048
:1010C0000296FFF771FA10208DF812002046782161
:1010D00000220123CDE900B70296FFF765FA4FF031
:1010E000000A00BF20467821402201238DF81350CA
:1010F000CDE900870296FFF757FA0AF101004FFA8F
:1011000080FABAF1FF3FEDDCB9F1070F09F10109EF
:10111000BED305B0BDE8F08F2DE9F04184B040F2B8
:101120009034AE20C2F200048DF80F006425012631
:101130000DF10F072046782100220123CDE900762A
:1011400002954FF00008FFF72FFA20467821002281
:1011500001238DF80F80CDE900760295FFF724FA80
:1011600010208DF80F002046782100220123CDE9C0
:1011700000760295FFF718FA40208DF80F00204600
:10118000782100220123CDE900760295FFF70CFAC1
:10119000B0208DF80F002046782100220123CDE9F0
:1011A00000760295FFF700FA81208DF80F002046A7
:1011B000782100220123CDE900760295FFF7F4F9AA
:1011C000FF208DF80F002046782100220123CDE971
:1011D00000760295FFF7E8F9A1208DF80F00204670
:1011E000782100220123CDE900760295FFF7DCF992
:1011F000A6208DF80F002046782100220123CDE99A
:1012000000760295FFF7D0F9A8208DF80F00204650
:10121000782100220123CDE900760295FFF7C4F979
:101220003F208DF80F002046782100220123CDE9D0
:1012300000760295FFF7B8F9C8208DF80F00204618
:10124000782100220123CDE900760295FFF7ACF961
:10125000D3208DF80F002046782100220123CDE90C
:1012600000760295FFF7A0F920467821002201239D
:101270008DF80F80CDE900760295FFF795F9D5201E
:101280008DF80F002046782100220123CDE9007659
:101290000295FFF789F980208DF80F00204678210C
:1012A00000220123CDE900760295FFF77DF9D820D1
:1012B0008DF80F002046782100220123CDE9007629
:1012C0000295FFF771F905208DF80F00204678216F
:1012D00000220123CDE900760295FFF765F9D920B8
:1012E0008DF80F002046782100220123CDE90076F9
:1012F0000295FFF759F9F1208DF80F00204678216B
:1013000000220123CDE900760295FFF74DF9DA209E
:101310008DF80F002046782100220123CDE90076C8
:101320000295FFF741F912208DF80F002046782131
:1013300000220123CDE900760295FFF735F9DB2085
:101340008DF80F002046782100220123CDE9007698
:101350000295FFF729F930208DF80F0020467821FB
:1013600000220123CDE900760295FFF71DF98D20BB
:101370008DF80F002046782100220123CDE9007668
:101380000295FFF711F914208DF80F0020467821FF
:1013900000220123CDE900760295FFF705F9AF2081
:1013A0008DF80F002046782100220123CDE9007638
:1013B0000295FFF7F9F804B0BDE8F0812DE9F04F90
:1013C00087B00646A1F1500040F290358DF8140028
:1013D000012705A8C2F20005144604914FF0640AE3
:1013E000CDE900072846782100220123CDF808A086
:1013F000FFF7DAF8300900F110080DF11500CDE91A
:10140000000728467821002201238DF81580CDF8A9
:1014100008A0FFF7C9F80DF1160006F00F0BCDE993
:10142000000728467821002201238DF816B0CDF858
:1014300008A0FFF7B9F840F20000C2F2000000EB8C
:1014400084164FF0FF340DF1170900BF30194078B2
:1014500078218DF81700284640220123CDE9009716
:10146000CDF808A0FFF7A0F801340F2CEED10498B6
:1014700040F290344F388DF818004FF0010A06A85A
:10148000C2F200044FF06409CDE9000A2046782139
:1014900000220123CDF80890FFF786F80DF119001E
:1014A000CDE9000A20467821002201238DF8198019
:1014B000CDF80890FFF778F80DF11A00CDE9000A91
:1014C00020467821002201238DF81AB0CDF808902B
:1014D000FFF76AF81F250DF11B0700BF7019407850
:1014E00078218DF81B00204640220123CDE9007AA7
:1014F000CDF80890FFF758F801352F2DEED107B041
:10150000BDE8F08F7047000070470000FFF74AB950
:1015100070470000FEE7000090B0FFF751F906ACFD
:1015200020462821FEF705FE012006900A904FF480
:10153000E01000254FF4803102260F9020460595DB
:10154000CDE90355CDE90155CDE90715CDE90D618B
:10155000FFF7BAFA18B1EFF3108072B6FEE70F206A
:10156000CDE901064FF48060CDE9040501A8022110
:101570000395FFF7B7F920B1EFF3108072B600BF03
:10158000FEE7002541F21800CDE90855CDE90655E2
:10159000C4F20200016841F2000441F01001016050
:1015A0000168C4F2010401F0100101910199016880
:1015B000002241F02001016001684FF4005601F063
:1015C000200101910199016841F008010160006862
:1015D0004FF4005100F00800019001982046FEF7FA
:1015E0000BFF0120CDE907050220099006A920463E
:1015F0000696FEF7FFFD40F29030A4F53C41C2F2A2
:10160000000048F2A0624FF48043C0F2010280E87B
:101610002600C0E90353C0E90555C0E90755FEF7A8
:10162000F7FE20B1EFF3108072B600BFFEE7FFF7C0
:1016300073FDFFF71DFD242000210222FFF7BEFEEF
:101640004FF47A70FEF7C2FDFFF712FDFEE702E0ED
:1016500008C8121F08C1002AFAD17047704700203D
:1016600001E001C1121F002AFBD1704701020000F6
:101670000000000000000102030406070809000042
:1016800000000102030402030405060708090A0B0F
:101690000C0D0E0F10100000B816000800000020FE
:1016A000900300006C01000830180008900300202F
:1016B000580400005E160008211BF010012AFF05E7
:1016C0000215F01B0F04012AFF0502130F18094031
:1016D00040405F55555575041A5F0C091121080CDF
:1016E00011200F094989790909090F201F112FFEBF
:1016F00002424ACA4A0304134202FE000E14FF408B
:10170000504C4340404F50505C40FF1BF888012A2A
:10171000FF050215F81B1F08012A7F200B109F8070
:10172000E23B808201000916E2A2928A86828080D2
:10173000041840807F172424A4FEA3221B22CCAAD5
:10174000011415080601FF2B0104010511FF020217
:10175000025808101010FF109008C3021108080F5B
:10176000100444827F01808040432C10284681A0D1
:1017700018094040484848C8784F06051548484071
:10178000400009150312122222528A063C10608082
:10179000BA19040B11C030FB1E404043407F061CA9
:1017A0007F424106094FC02941080B1110D030FF7C
:1017B00030D0121C10101F3D080402019E0D1101B3
:1017C000020408211116FE222222FE0712FE828246
:1017D00092A29E100880601F0242827F0F11FF407C
:1017E0002F102C438011000B1490884C57A42454C4
:1017F000548C84180801018042221A07441D423E7D
:1018000001018AF9E1000D14E4242CB4252624B446
:101810002C24E404180AFF02011E1212121E418633
:1018200001131324F4295669DA00000000000000B7
:04000005080000ED02
:00000001FF
